:0600000002006B020ADBA6
:03000B00020D885B
:03001300020B2EAF
:01001B0032B2
:03002300020A438B
:03002B000210FDC3
:01003300329A
:03003B00020B8134
:03004300020A04AA
:01004B003282
:03005300020A8F0F
:01005B003272
:0300630002101F69
:03006600020BD5B5
:0F006900E47375812D12140CE5826003020066AA
:100078007921E94400601B7A0190162F786175A0F8
:1000880001E493F2A308B8000205A0D9F4DAF275E6
:02009800A0FFC7
:06009A00E478FFF6D8FD3A
:1000A0007800E84400600A790A75A001E4F309D8F1
:1000B000FC7857E84400600C790190010AE4F0A351
:0400C000D8FCD9FA95
:0200C400C20078
:0E00C6007808E4F608F608F608F6780C7600DE
:0200D400C20365
:0200D600C20462
:0300D800020066BD
:1000DC00AFF0AE83E58290010CF0EEA3F0EFA3F04D
:1000EC0090010CE0FDA3E0FEA3E0FF90010AE0FB11
:1000FC00A3E08D828E838FF0120F660DBD00010E72
:10010C008D828E838FF0EB020F66E582900110F0EA
:10011C00E0FFBF020040012290010FE0249B50063B
:10012C0090010F7464F0EF246CFDE43401FE900137
:10013C000FE0FC8D828E83F07E00C007C004C006E9
:10014C009000FF120F81AD82AE831581158174640E
:10015C00C0E0E4C0E08D828E83120940AD8215812F
:10016C001581D007EF70057E22FF80047E0F7F0083
:10017C0090011FEDF0E4A3F08E82021046E5829010
:10018C000111F0E0FFBF0200400475820022EF2451
:10019C006EF582E43401F583E0F58222E58290016C
:1001AC0012F0E0FFBF0200400490000022EF75F057
:1001BC0002A42468F582740135F0F583E0FEA3E017
:1001CC008E82F58322AF83E582900113F0EFA3F0CA
:1001DC00900113E0FEA3E0FF8E828F83E0FD7A1086
:1001EC007B007C00900119E4F090011A7410F0E48B
:1001FC00A3F08A828B838CF0C007C006C005120B5B
:10020C00E4D005D006D007900010E4F0BD020280C7
:10021C0043BD0602805EBD1002806FBD1103020259
:10022C00BDBD12030202D3BD2003020321BD210375
:10023C00020362BD2203020385BD23030203B1BD89
:10024C002403020417BD2503020417BD280302036F
:10025C00CA02041190001175F0007401120F66901F
:10026C000012E4F5F0120F6690001375F000120FF7
:10027C0066020417900011E4F5F0120F669000125C
:10028C0075F00004120F66020417900014E4F5F0E8
:10029C00120F6690001375F000120F669000127525
:1002AC00F000120F6690001175F000120F66020438
:1002BC001790010A74C4F07409A3F090001175F042
:1002CC00001200DC0204178E828F83A3E0FD7016EF
:1002DC0090010A74E0F0742EA3F090001175F000F8
:1002EC001200DC020417BD011690010A7488F07428
:1002FC0013A3F090001175F0001200DC02041790AB
:10030C00010A74E4F0740CA3F090001175F0001263
:10031C0000DC0204177D00BD060040030204178DAB
:10032C00037C000BBB00010CEB2410FBEC3400FC39
:10033C007A008D82C005C004C003C002120189A9D5
:10034C0082D002D003D004D0058B828C838AF0E952
:10035C00120F660D80C18E828F83A3E0F58212018D
:10036C00A8AC82AD8390010AECF0EDA3F0900011E3
:10037C0075F0001200DC0204178E828F83A3E0FD5F
:10038C00BD02005018ED246CF582E43401F583E0D5
:10039C00FD90001175F000ED120F66806E9000104C
:1003AC007412F080668E828F83A3E0FD8E828F8321
:1003BC00A3A3E090010FF08D82120116804D740200
:1003CC002EFCE43FFD8C828D83E0FBBB0200503B96
:1003DC00EB246EFBE43401FA8E828F83A3A3A3E09B
:1003EC008B828A83F08C828D83E0FF246EFDE43453
:1003FC0001FE8D828E83E0701290010FE4F08F82EB
:10040C0012011680069000107401F075D310D20002
:10041C0053D2FC22900164E0FEA3E0FF0EBE00016B
:10042C000F900164EEF0EFA3F022900166E0FEA3C2
:10043C00E0FF0EBE00010F900166EEF0EFA3F0227C
:10044C00120E08AC82AD83AEF0FF900170E0F8A301
:10045C00E0F9A3E0FAA3E0FBECC398F8ED99F9EE10
:10046C009AFAEF9BFBC3E894E8E99403EA9400EB57
:10047C009400500122900170ECF0EDA3F0EEA3F08B
:10048C00EFA3F0C2AF900164E0FEA3E0FF90016423
:10049C00E4F0A3F0900166E0FCA3E0FD900166E4BB
:1004AC00F0A3F0D2AF7B007A00C005C004C006C038
:1004BC0007C003C00290003CE4F5F012111BAA82A5
:1004CC00AB83AEF0FFE58124FCF581D004D005EFC1
:1004DC00C313EE13EB13FBEA13900168F0EBA3F0DC
:1004EC007F007E00C004C005C007C00690003CE43D
:1004FC00F5F012111BAC82AD83AEF0FFE58124FC4C
:10050C00F581EFC313EE13ED13FDEC1390016AF0BC
:10051C00EDA3F022900115E5DBF0E0FFBF080280AF
:10052C000475DCCF22900007E0FE7F00900006E00F
:10053C00FD7C004FF510EC4EF511900001E0F5122A
:10054C00900115E4F0900000E0FF54606003020796
:10055C000CE4B512030206E77405B512030206BDDE
:10056C007406B51202801B7408B512030206D67409
:10057C0009B512030206CA740AB512030206F80280
:10058C000704900003E0FFBF01028013BF0202804A
:10059C001DBF03028027BF220302063302064175EA
:1005AC0013FD7514149001157412F002064775139F
:1005BC002A7514159001157429F002064790000253
:1005CC00E0700E7513537514159001157404F080BA
:1005DC006A900002E0FFBF01127513577514159055
:1005EC001557E493FF900115F08050900002E0FF46
:1005FC00BF0212751367751415901567E493FF907D
:10060C000115F08036900002E0FFBF0312751383D2
:10061C00751415901583E493FF900115F0801C90D0
:10062C00011574FFF0801475130F751415900115D6
:10063C00741BF0800690011574FFF0900115E0FF1B
:10064C00BFFF0302075A8F067F00C3EE9510EF958C
:10065C001150048E108F11AE10AF11C3EE9408EF31
:10066C009400920140067C087D008004AC10AD1112
:10067C00900115ECF07D00C3ED9C50198D027B00B0
:10068C00ED2513F582E43514F583E493F98A828B16
:10069C0083F00D80E28C037D00EEC39BFEEF9DFF8B
:1006AC008E108F11EC2513F513E43514F514020795
:1006BC005A900002E0FF8F1075110002075A90004B
:1006CC0002E0FF900163F002075A900163E0FF9093
:1006DC000000F09001157401F08073900000E4F0BC
:1006EC00900001F09001157402F08062900000E41B
:1006FC00F090011504F0805690011574FFF0804EB7
:10070C00900000E0FF5307607E00BF203BBE003826
:10071C00740AB51207900115E4F080327401B51219
:10072C001F900119E4F090011A7408F0E4A3F09002
:10073C00000075F000120BE49001157408F0800EA7
:10074C0090011574FFF0800690011574FFF0900174
:10075C0015E0FFBFFF077512FF75DCCF228FDD752B
:10076C00DCC0227406B51258AE10AF11C3EE94085B
:10077C00EF9400920240067C087D008004AC10AD22
:10078C00117D00C3ED9C50198D027B00ED2513F5F6
:10079C0082E43514F583E493F98A828B83F00D801F
:1007AC00E28C037D00EEC39BFEEF9DFF8E108F113C
:1007BC00EC2513F513E43514F5148CDD63DC4022C1
:1007CC007405B5120EE5E35480FFE5104FF5E375A3
:1007DC00DC022275DD0075DC022275DD0075DC02A1
:1007EC002275D300C20074FC55D24402F5D22230DB
:1007FC00DE069000601201D153D4F32230D941E5CA
:10080C00D9540FFFE5D95430FEEF7008BE300512F5
:10081C000520802AEF7008BE200512076F801FEF9D
:10082C007008EE70051207E68014BF0108BE2005A3
:10083C001207ED8009BF0206EE70031207FBC2D946
:10084C0030D81775DC0275D21275D41075E300C25E
:10085C00DAC2D9C2D8900163E4F010DA0122227511
:10086C00E20053E27F43E22975E30053E2BF53D128
:10087C00FB75D18043D101227E007F008EEC8FED81
:10088C007E107F008EEE8FEF7E607F008EE48FE512
:10089C0075EA4075EB0875DC0275D21275D410221E
:1008AC0043E10443E10243E10143D81FD2EAD2AF52
:1008BC002212086B1208840208AC90011C7401F01F
:1008CC00758222120C0C90011C7401F075820F12AF
:1008DC000C0C90011C7402F0758220120C0C90010F
:1008EC001C7402F0758221120C0C90010F7432F002
:1008FC0075820012011690010F7432F0758201128C
:10090C0001169001167420F07404A3F09001187471
:10091C0001F075820012098D9001167436F0740482
:10092C00A3F09001187401F075820112098D020870
:04093C00BD02044CA8
:10094000C015858115AE82AF837C007D007B10EFE2
:10095000235401FAEE2EFEEF33FFEC2CFCED33FDB9
:10096000EA6003430401E51524FCF8C3EC96ED08A6
:10097000964010E51524FCF8ECC396FCED0896FDB6
:10098000430601DBCA8E828F83D0152222AF82BF3D
:100990000200503EEF75F002A42474FD740135F09E
:1009A000FE900116E0FBA3E0FC8D828E83EBF0EC61
:1009B000A3F0BF00028005BF0118800B900118E072
:1009C00024FF9288D2A822900118E0FF24FF928A87
:1009D000D2AA22AF82BF02005028BF00028005BF0A
:1009E00001088004C2A88002C2AAEF75F002A42404
:1009F00074FE740135F0FF8E828F83748CF074095D
:030A0000A3F0223E
:100A0400C021C0E0C0F0C082C083C007C006C005DA
:100A1400C004C003C002C001C000C0D075D0001221
:100A24000808D0D0D000D001D002D003D004D00523
:100A3400D006D007D083D082D0F0D0E0D02132C00D
:100A440021C0E0C0F0C082C083C007C006C005C09A
:100A540004C003C002C001C000C0D075D0003098EB
:100A6400051212F0C298309905121330C299D0D0F1
:100A7400D000D001D002D003D004D005D006D007D6
:100A8400D083D082D0F0D0E0D02132C021C0E0C0E9
:100A9400F0C082C083C007C006C005C004C003C044
:100AA40002C001C000C0D075D00030C00512137E52
:100AB400C2C030C1051213BEC2C1D0D0D000D00113
:100AC400D002D003D004D005D006D007D083D08282
:100AD400D0F0D0E0D02132C021C0E0C0F0C082C04C
:100AE40083C007C006C005C004C003C002C001C063
:100AF40000C0D075D000900174E0FEA3E0FFC007F1
:100B0400C0068E828F83120069D006D007D0D0D061
:100B140000D001D002D003D004D005D006D007D035
:100B240083D082D0F0D0E0D02132C021C0E0C0F028
:100B3400C082C083C007C006C005C004C003C00291
:100B4400C001C000C0D075D000900176E0FEA3E0E3
:100B5400FFC007C0068E828F83120069D006D007BB
:100B6400D0D0D000D001D002D003D004D005D0061C
:100B7400D007D083D082D0F0D0E0D02132C021C0C1
:100B8400E0C0F0C082C083C007C006C005C004C076
:100B940003C002C001C000C0D075D000900178E04D
:100BA400FEA3E04E600E900178E0F8A3E0F58388A0
:100BB40082120069D0D0D000D001D002D003D0047A
:100BC400D005D006D007D083D082D0F0D0E0D02199
:100BD40032120F311208C612093D80FB75820022C1
:100BE400AC82AD8390011AE0FEA3E0FFBE00036077
:100BF400121F0F900119E08C828D83120F66A3DE01
:100C0400FADFF88C828D8322E582FF9015DF93FE54
:100C1400EF9015B793FF70012290011CE0FD701B4B
:100C2400BF0209EEF4FC5292EC529322BF040280FC
:100C34000122EEF4FC5296EC529722BD0214BF023C
:100C440007EE4292EE429322BF0439EE4296EE4200
:100C54009722BD0116BF0208EEF45292EE4293228F
:100C6400BF0421EEF45296EE429722BD0316BF0252
:100C740008EE4292EEF4529322BF0408EE4296EE3E
:100C8400F4FE529722AF82BF0102800FBF0202809E
:100C940013BF03028017BF0425801BE5C620E21E94
:100CA400539DFB22E5C620E315539DF722E5C6308C
:100CB400E20C539DFB22E5C630E303539DF722E586
:100CC40082FF90158F93FEEF9015DF93FDEF901543
:100CD400B793FF7003F58222EE600D8E82C007C0C9
:100CE40005120C89D005D0077E00BF0202800ABF1E
:100CF40003028009BF040C8008AE908006AEA08079
:100D040002AEB0ED5E60047582012275820022E5B8
:100D140082FF90158F93FEEF9015DF93FDEF9015F2
:100D2400B793FFEE600D8E82C007C005120C89D008
:100D340005D007A2AFE433FEC2AFBF0202800ABFF0
:100D440003028017BF0436802490011DE07007ED74
:100D5400F4FF52908027ED4290802290011DE070B4
:100D640007EDF4FF52A08015ED42A0801090011D04
:100D7400E07007EDF4FF52B08003ED42B0EE600284
:030D8400D2AF22C9
:100D8800C0D075D00808B8000D09B900090ABA0022
:100D9800050BBB00010CD0D032A2AFC2AFA808A986
:100DA80009AA0AAB0BAC8A8588F092AF30F51274A9
:100DB800012C600D08B8000909B900050ABA00013C
:100DC8000BC3EC9406FCECC313FC75F07DE8A4F8A7
:100DD800ADF075F07DE9A42DF9E435F0FD75F07DF1
:100DE800EAA42DFAE435F0FD75F07DEBA42DFB7D2A
:100DF80000EC28F582E93DF583EA3DF5F0EB3D226C
:100E0800A2AFC2AFA808A909AA0AAB0BAC0C92AF53
:100E180075F020E8A4A8F075F020E9A428F582A8C8
:100E2800F075F020EAA428F583A8F075F020EBA46B
:100E380028F9A8F075F020ECA42889F022858222F0
:100E480085832385F024F525120DA18582268583C7
:100E58002785F028F529E5224523452445257001F5
:100E680022A822A923AA24AB2585262A85272B85F3
:100E7800282C85292DE8494A4B60DBC003C002C0F5
:100E880001C000120DA1AC82AD83AEF0FFD000D03E
:100E980001D002D003ECC3952AFCED952BFDEE950D
:100EA8002CFEEF952DFFC3EC94E8ED9403EE94002F
:100EB800EF940040A118B8FF0919B9FF051ABAFF45
:100EC800011B882289238A248B2574E8252AF52A80
:100ED8007403352BF52BE4352CF52CE4352DF52D45
:100EE800852A26852B27852C28852D298087AE8263
:100EF800AF83C374019EE49F40022200C374029E24
:100F0800FE74009FFF00BE0005BF00020022000023
:100F18000000000000000000000000000000000EBB
:100F2800BE00EB0FBF00ED002275A15575A1AA7494
:100F3800F855B94406F5B975A100901388120EF654
:100F4800759E5D759D0074F055894402F58953C9F5
:0D0F5800EF758C06C28DD2A9D28CD2AF22CB
:100F660020F71130F6138883A88220F509F6A883A6
:100F76007583002280FEF280F5F022C0158581156A
:100F8600C082C083E5812405F581AF150FE51524E0
:100F960003F8A607087600087640E51524FCFD7ED2
:100FA600007F40E5152406F9A815088604E51524F2
:100FB600FCF886038CF0EBA4F709A7F0E5152406E8
:100FC60004F98704A81508860374012DFAE43EFE89
:100FD6008A828E838FF01210FF8BF0A4FBE5152416
:100FE60003F8740126FDE40836FE0886078D828E16
:100FF600838FF01210FFFDE51524FCF886078DF0AF
:10100600EFA42B2CF7E5152406F987060987078E2A
:0A101600828F83851581D0152232E8
:10102100E58290160793FFBFFF0475820022759A2F
:101031000974FC5580FE74035F4EF580D2842084D0
:10104100FD859F8222AF8290011C7401F08F82C0C6
:1010510007120C0CD00790011FE0FDA3E0FE4D70BC
:101061000A90011DE4F08F82020D138D038E04742A
:10107100FF2C500B90011D7401F08F82020D13EFB4
:1010810090158F93FA24FB4054EA2A9010907380B4
:101091004C800680158024803353C6FB439D044356
:1010A1009D10E59D30E4FB8D9C2253C6F7439D08BE
:1010B100439D10E59D30E4FB8D9B2243C604439D77
:1010C10004439D10E59D30E4FB8D9C2243C60843FB
:1010D1009D08439D10E59D30E4FB8D9B22C3EB945D
:1010E10080EC9400500A90011DE4F08F82020D13F0
:0B10F10090011D7401F08F82020D13AE
:0110FD0032C0
:1010FF0020F71430F6148883A88220F507E6A8831A
:10110F0075830022E280F7E49322E022C0158581E7
:10111F0015C082C083C0F0C0E0E5812408F581E5E9
:10112F00152409F92402F8AF150F8F06C000A80681
:10113F008606E51524FAFDFC0C0CA8048604D000E5
:10114F008EF0ECA4FEABF0A60608A6038F068E0069
:10115F0086068D048C0086048EF0ECA4FEABF0A7FF
:10116F000609A703E51524092403F987068F0474DC
:10117F00032CF886048D038B0086038CF0EBA42ED2
:10118F00FEF78F0474022CF886048D03EB04F886A7
:10119F00038CF0EBA42EF7E51524092402F987043C
:1011AF00098706198F0374022BF886038D028A00B4
:1011BF0086028BF0EAA4ABF02CFCEB3EFEA70409F1
:1011CF00A706198F03EB04F886038D02EA04F8864D
:1011DF00028BF0EAA4ABF02CFCEB3EFEA70409A7B0
:1011EF00068F0674032EF98F06EE04F886068D041B
:1011FF0074022CF886048EF0ECA4F78F06EE04F937
:10120F008F06EE04F886068D048C0086048EF0ECB3
:10121F00A4FEABF0A70609A7038D0674032EF98F62
:10122F00068E0086068D0474032CF886048EF0EC6F
:10123F00A4F78D06EE04F98F068E0086068D04EC5A
:10124F0004F886048EF0ECA4FEABF0A70609A70302
:10125F008D0177008F017700E5152409F9E5152435
:10126F0005F8E7F609E708F609E708F609E708F6CB
:10127F00191919A815088602088603088606088614
:10128F0007E5152405F8EA26F6EB0836F6EE0836DC
:10129F00F6EF0836F6E5152405F8E6F70908E6F740
:1012AF000908E6F70908E6F7191919E709E709E741
:1012BF0009E7E51524FAF886040886050886060866
:1012CF008607E5152405F8EC26FCED0836FDEE083B
:1012DF0036FEEF08368C828D838EF0851581D01502
:0112EF0022DC
:1012F00090017AE0FF7E000FBF00010E7410C0E085
:10130000E4C0E08F828E83121410AE8215811581A5
:1013100090017BE0FFEEB507012290017AE02421E5
:10132000F582E43401F583E599F090017AEEF0223C
:1013300030034A90017CE0FF90017DE0FEEFB506AE
:1013400005A203C2032290017DE02431F582E4343A
:1013500001F583E0F59990017DE0FF7E000FBF006D
:10136000010E7410C0E0E4C0E08F828E831214106E
:0E137000AE82AF831581158190017DEEF022D3
:10137E0090017EE0FF7E000FBF00010E7410C0E0F2
:10138E00E4C0E08F828E83121410AE821581158117
:10139E0090017FE0FFEEB507012290017EE024412F
:1013AE00F582E43401F583E5C1F090017EEEF02282
:1013BE0030044A900180E0FF900181E0FEEFB50617
:1013CE0005A204C20422900181E02451F582E43486
:1013DE0001F583E0F5C1900181E0FF7E000FBF00B3
:1013EE00010E7410C0E0E4C0E08F828E83121410E0
:0E13FE00AE82AF8315811581900181EEF02241
:10140C0075820022C015858115AE82E583FF33E419
:10141C0033FD6009C3E49EFBE49FFC80048E038FC4
:10142C0004E51524FCF808E630E70FE51524FCF874
:10143C00C3E496FE08E496FF800AE51524FCF886C2
:10144C0006088607C005C006C0078B828C83121461
:10145C007EAE82AF8315811581D005ED600DC3E49E
:10146C009EFCE49FFD8C828D8380048E828F83D0C2
:10147C001522C015858115AE82AF837D007C00E5F9
:10148C001524FCF808E6235401FB702FE51524FC09
:10149C00F8E626F608E633F6E51524FCF8C3EE96D6
:1014AC00EF08965011E51524FCF808E618C313C68E
:1014BC0013C608F680050C8C0580C4E51524FCF8D1
:1014CC00C3EE96EF0896400DE51524FCF8EEC39696
:1014DC00FEEF0896FFE51524FCF808E618C313C6C2
:1014EC0013C608F68D041DEC70D18E828F83D01537
:0114FC0022CD
:1014FD0012011001000000081C1B100C000101025C
:10150D0003010600FF0901A101150026FF00750862
:10151D00954009019102951009018102C009022926
:10152D0000010100803209040000020300000009DF
:10153D002111010001221B00070581031000010785
:10154D0005020340000104030904100343006F006A
:10155D00720073006100690072001C0343006F008C
:10156D006D006D0061006E0064006500720020006A
:10157D00500072006F000C03430048003500350029
:02158D0032002A
:10158F00000000000000000000000000000000014B
:10159F000000000000000000000000000000030435
:1015AF000000020000000000010101010101010122
:1015BF000000020202020202020200000303030300
:1015CF0003030303000004040404040404040000E0
:1015DF0001020408102040800000010204081020BE
:1015EF00408000000102040810204080000001022A
:1015FF000408102040800000FFFFFFFFFFFFFFFFE8
:10160F00FFFFFF00FFFF0102FFFFFFFFFFFFFFFFD5
:10161F00FFFFFFFFFFFFFFFF03FFFFFFFFFFFFFFC7
:10162F00D50B000000000000000000323202020063
:03163F00000000A8
:041642008C098C097A
:021646000000A2
:04164800000000009E
:04164C00000000009A
:00000001FF
