:0600000002006B020B136D
:03000B00020DC023
:03001300020B6677
:01001B0032B2
:03002300020A7B53
:03002B000211358A
:01003300329A
:03003B00020BB9FC
:03004300020A3C72
:01004B003282
:03005300020AC7D7
:01005B003272
:0300630002105731
:03006600020C0D7C
:0F006900E47375812D121444E582600302006672
:100078007921E94400601B7A01901675786175A0B2
:1000880001E493F2A308B8000205A0D9F4DAF275E6
:02009800A0FFC7
:06009A00E478FFF6D8FD3A
:1000A0007800E84400600A790A75A001E4F309D8F1
:1000B000FC7857E84400600C790190010AE4F0A351
:0400C000D8FCD9FA95
:0200C400C20078
:0E00C6007808E4F608F608F608F6780C7600DE
:0200D400C20365
:0200D600C20462
:0300D800020066BD
:1000DC00AFF0AE83E58290010CF0EEA3F0EFA3F04D
:1000EC0090010CE0FDA3E0FEA3E0FF90010AE0FB11
:1000FC00A3E08D828E838FF0120F9E0DBD00010E3A
:10010C008D828E838FF0EB020F9EE582900110F0B2
:10011C00E0FFBF020040012290010FE0249B50063B
:10012C0090010F7464F0EF246CFDE43401FE900137
:10013C000FE0FC8D828E83F07E00C007C004C006E9
:10014C009000FF120FB9AD82AE83158115817464D6
:10015C00C0E0E4C0E08D828E83120978AD821581F7
:10016C001581D007EF70057E0FFF80047E227F0083
:10017C0090011FEDF0E4A3F08E8202107EE58290D8
:10018C000111F0E0FFBF0200400475820022EF2451
:10019C006EF582E43401F583E0F58222E58290016C
:1001AC0012F0E0FFBF0200400490000022EF75F057
:1001BC0002A42468F582740135F0F583E0FEA3E017
:1001CC008E82F58322AF83E582900113F0EFA3F0CA
:1001DC00900113E0FEA3E0FF8E828F83E0FD7A1086
:1001EC007B007C00900119E4F090011A7410F0E48B
:1001FC00A3F08A828B838CF0C007C006C005120C5A
:10020C001CD005D006D007900010E4F0BD0202808F
:10021C0063BD06030202A0BD10030202B6BD1103AA
:10022C000202DFBD120302030ABD2003020358BD04
:10023C002103020399BD22030203BCBD2303020365
:10024C00E8BD240302044EBD250302044EBD280361
:10025C00020401BD330302044EBD340302044EBD3F
:10026C00350302044EBD370302044EBD38030204AD
:10027C004E02044890001175F0007401120F9E900C
:10028C000012E4F5F0120F9E90001375F000120F9F
:10029C009E02044E900011E4F5F0120F9E90001295
:1002AC0075F00004120F9E02044E90001475F000BD
:1002BC007401120F9E90001375F000120F9E9000A7
:1002CC001275F000120F9E90001175F000120F9E27
:1002DC0002044E8E828F83A3E0FDBD040050169065
:1002EC00010A74C4F07409A3F090001175F00012A7
:1002FC0000DC02044E9000107410F002044E8E824A
:10030C008F83A3E0FD701690010A74E0F0742EA3A5
:10031C00F090001175F0001200DC02044EBD0116C5
:10032C0090010A7488F07413A3F090001175F0001A
:10033C001200DC02044E90010A74E4F0740CA3F079
:10034C0090001175F0001200DC02044E7D00BD0619
:10035C0000400302044E8D037C000BBB00010CEB30
:10036C002410FBEC3400FC7A008D82C005C004C064
:10037C0003C002120189A982D002D003D004D00597
:10038C008B828C838AF0E9120F9E0D80C18E828F36
:10039C0083A3E0F5821201A8AC82AD8390010AEC34
:1003AC00F0EDA3F090001175F0001200DC02044E89
:1003BC008E828F83A3E0FDBD02005018ED246CF5F6
:1003CC0082E43401F583E0FD90001175F000ED122C
:1003DC000F9E806E9000107412F080668E828F8358
:1003EC00A3E0FD8E828F83A3A3E090010FF08D829A
:1003FC00120116804D74022EFCE43FFD8C828D831D
:10040C00E0FBBB0200503BEB246EFBE43401FA8EA4
:10041C00828F83A3A3A3E08B828A83F08C828D834B
:10042C00E0FF246EFDE43401FE8D828E83E07012B9
:10043C0090010FE4F08F8212011680069000107468
:10044C0001F075D310D20053D2FC22900164E0FE6F
:10045C00A3E0FF0EBE00010F900164EEF0EFA3F0DD
:10046C0022900166E0FEA3E0FF0EBE00010F90019A
:10047C0066EEF0EFA3F022120E40AC82AD83AEF02C
:10048C00FF900170E0F8A3E0F9A3E0FAA3E0FBEC25
:10049C00C398F8ED99F9EE9AFAEF9BFBC3E894E850
:1004AC00E99403EA9400EB9400500122900170EC63
:1004BC00F0EDA3F0EEA3F0EFA3F0C2AF900164E077
:1004CC00FEA3E0FF900164E4F0A3F0900166E0FC71
:1004DC00A3E0FD900166E4F0A3F0D2AF7B007A00BC
:1004EC00C005C004C006C007C003C00290003CE4B5
:1004FC00F5F0121153AA82AB83AEF0FFE58124FC18
:10050C00F581D004D005EFC313EE13EB13FBEA1304
:10051C00900168F0EBA3F07F007E00C004C005C022
:10052C0007C00690003CE4F5F0121153AC82AD8389
:10053C00AEF0FFE58124FCF581EFC313EE13ED1350
:10054C00FDEC1390016AF0EDA3F022900115E5DBB0
:10055C00F0E0FFBF0802800475DCCF22900007E0BA
:10056C00FE7F00900006E0FD7C004FF510EC4EF590
:10057C0011900001E0F512900115E4F0900000E0FC
:10058C00FF54606003020743E4B5120302071E74B4
:10059C0005B512030206F47406B51202801B74082A
:1005AC00B5120302070D7409B51203020701740A90
:1005BC00B5120302072F02073B900003E0FFBF01B7
:1005CC00028013BF0202801DBF03028027BF2203DB
:1005DC0002066A02067875133575141590011574A8
:1005EC0012F002067E7513627514159001157429AC
:1005FC00F002067E900002E0700E75138B751415D8
:10060C009001157404F0806A900002E0FFBF0112A3
:10061C0075138F75141590158FE493FF900115F0D9
:10062C008050900002E0FFBF021275139F751415E5
:10063C0090159FE493FF900115F08036900002E036
:10064C00FFBF03127513BB7514159015BBE493FF14
:10065C00900115F0801C90011574FFF08014751337
:10066C0047751415900115741BF0800690011574D4
:10067C00FFF0900115E0FFBFFF030207918F067F8B
:10068C0000C3EE9510EF951150048E108F11AE1023
:10069C00AF11C3EE9408EF9400920140067C087DE4
:1006AC00008004AC10AD11900115ECF07D00C3ED91
:1006BC009C50198D027B00ED2513F582E43514F561
:1006CC0083E493F98A828B83F00D80E28C037D00A6
:1006DC00EEC39BFEEF9DFF8E108F11EC2513F513CF
:1006EC00E43514F514020791900002E0FF8F1075A9
:1006FC001100020791900002E0FF900163F00207E5
:10070C0091900163E0FF900000F09001157401F0EE
:10071C008073900000E4F0900001F09001157402D9
:10072C00F08062900000E4F090011504F080569087
:10073C00011574FFF0804E900000E0FF5307607EBF
:10074C0000BF203BBE0038740AB51207900115E4B7
:10075C00F080327401B5121F900119E4F090011A67
:10076C007408F0E4A3F090000075F000120C1C90DB
:10077C0001157408F0800E90011574FFF08006903E
:10078C00011574FFF0900115E0FFBFFF077512FF14
:10079C0075DCCF228FDD75DCC0227406B51258AE25
:1007AC0010AF11C3EE9408EF9400920240067C083F
:1007BC007D008004AC10AD117D00C3ED9C50198DF3
:1007CC00027B00ED2513F582E43514F583E493F9EF
:1007DC008A828B83F00D80E28C037D00EEC39BFE3E
:1007EC00EF9DFF8E108F11EC2513F513E43514F5E6
:1007FC00148CDD63DC40227405B5120EE5E35480E5
:10080C00FFE5104FF5E375DC022275DD0075DC02A7
:10081C002275DD0075DC022275D300C20074FC5514
:10082C00D24402F5D22230DE069000601201D15380
:10083C00D4F32230D941E5D9540FFFE5D95430FE19
:10084C00EF7008BE3005120557802AEF7008BE20E5
:10085C00051207A6801FEF7008EE700512081D80A8
:10086C0014BF0108BE20051208248009BF0206EE41
:10087C007003120832C2D930D81775DC0275D21247
:10088C0075D41075E300C2DAC2D9C2D8900163E402
:10089C00F010DA01222275E20053E27F43E229755F
:1008AC00E30053E2BF53D1FB75D18043D101227ECB
:1008BC00007F008EEC8FED7E107F008EEE8FEF7E32
:1008CC00607F008EE48FE575EA4075EB0875DC02FD
:1008DC0075D21275D4102243E10443E10243E101C5
:1008EC0043D81FD2EAD2AF221208A21208BB0208C8
:1008FC00E390011C7401F075820F120C4490011CE2
:10090C007401F0758222120C4490011C7402F07573
:10091C008220120C4490011C7402F0758221120C7E
:10092C004490010F7432F075820012011690010F81
:10093C007432F07582011201169001167457F0741E
:10094C0004A3F09001187401F07582001209C5908F
:10095C000116746DF07404A3F09001187401F07515
:0B096C0082011209C50208F402048396
:10097800C015858115AE82AF837C007D007B10EFAA
:10098800235401FAEE2EFEEF33FFEC2CFCED33FD81
:10099800EA6003430401E51524FCF8C3EC96ED086E
:1009A800964010E51524FCF8ECC396FCED0896FD7E
:1009B800430601DBCA8E828F83D0152222AF82BF05
:1009C8000200503EEF75F002A42474FD740135F066
:1009D800FE900116E0FBA3E0FC8D828E83EBF0EC29
:1009E800A3F0BF00028005BF0118800B900118E03A
:1009F80024FF9288D2A822900118E0FF24FF928A4F
:100A0800D2AA22AF82BF02005028BF00028005BFD1
:100A180001088004C2A88002C2AAEF75F002A424CB
:100A280074FE740135F0FF8E828F8374C4F07409EC
:030A3800A3F02206
:100A3C00C021C0E0C0F0C082C083C007C006C005A2
:100A4C00C004C003C002C001C000C0D075D00012E9
:100A5C00083FD0D0D000D001D002D003D004D005B4
:100A6C00D006D007D083D082D0F0D0E0D02132C0D5
:100A7C0021C0E0C0F0C082C083C007C006C005C062
:100A8C0004C003C002C001C000C0D075D0003098B3
:100A9C0005121328C298309905121368C299D0D048
:100AAC00D000D001D002D003D004D005D006D0079E
:100ABC00D083D082D0F0D0E0D02132C021C0E0C0B1
:100ACC00F0C082C083C007C006C005C004C003C00C
:100ADC0002C001C000C0D075D00030C0051213B6E2
:100AEC00C2C030C1051213F6C2C1D0D0D000D001A3
:100AFC00D002D003D004D005D006D007D083D0824A
:100B0C00D0F0D0E0D02132C021C0E0C0F0C082C013
:100B1C0083C007C006C005C004C003C002C001C02A
:100B2C0000C0D075D000900174E0FEA3E0FFC007B8
:100B3C00C0068E828F83120069D006D007D0D0D029
:100B4C0000D001D002D003D004D005D006D007D0FD
:100B5C0083D082D0F0D0E0D02132C021C0E0C0F0F0
:100B6C00C082C083C007C006C005C004C003C00259
:100B7C00C001C000C0D075D000900176E0FEA3E0AB
:100B8C00FFC007C0068E828F83120069D006D00783
:100B9C00D0D0D000D001D002D003D004D005D006E4
:100BAC00D007D083D082D0F0D0E0D02132C021C089
:100BBC00E0C0F0C082C083C007C006C005C004C03E
:100BCC0003C002C001C000C0D075D000900178E015
:100BDC00FEA3E04E600E900178E0F8A3E0F5838868
:100BEC0082120069D0D0D000D001D002D003D00442
:100BFC00D005D006D007D083D082D0F0D0E0D02161
:100C0C0032120F691208FD12097480FB75820022E2
:100C1C00AC82AD8390011AE0FEA3E0FFBE0003603E
:100C2C00121F0F900119E08C828D83120F9EA3DE90
:100C3C00FADFF88C828D8322E582FF90162593FED5
:100C4C00EF9015FD93FF70012290011CE0FD701BCD
:100C5C00BF0209EEF4FC5292EC529322BF040280C4
:100C6C000122EEF4FC5296EC529722BD0214BF0204
:100C7C0007EE4292EE429322BF0439EE4296EE42C8
:100C8C009722BD0116BF0208EEF45292EE42932257
:100C9C00BF0421EEF45296EE429722BD0316BF021A
:100CAC0008EE4292EEF4529322BF0408EE4296EE06
:100CBC00F4FE529722AF82BF0102800FBF02028066
:100CCC0013BF03028017BF0425801BE5C620E21E5C
:100CDC00539DFB22E5C620E315539DF722E5C63054
:100CEC00E20C539DFB22E5C630E303539DF722E54E
:100CFC0082FF9015D593FEEF90162593FDEF90157E
:100D0C00FD93FF7003F58222EE600D8E82C007C04A
:100D1C0005120CC1D005D0077E00BF0202800ABFAD
:100D2C0003028009BF040C8008AE908006AEA08040
:100D3C0002AEB0ED5E60047582012275820022E580
:100D4C0082FF9015D593FEEF90162593FDEF90152D
:100D5C00FD93FFEE600D8E82C007C005120CC1D052
:100D6C0005D007A2AFE433FEC2AFBF0202800ABFB8
:100D7C0003028017BF0436802490011DE07007ED3C
:100D8C00F4FF52908027ED4290802290011DE0707C
:100D9C0007EDF4FF52A08015ED42A0801090011DCC
:100DAC00E07007EDF4FF52B08003ED42B0EE60024C
:030DBC00D2AF2291
:100DC000C0D075D00808B8000D09B900090ABA00EA
:100DD000050BBB00010CD0D032A2AFC2AFA808A94E
:100DE00009AA0AAB0BAC8A8588F092AF30F5127471
:100DF000012C600D08B8000909B900050ABA000104
:100E00000BC3EC9406FCECC313FC75F07DE8A4F86E
:100E1000ADF075F07DE9A42DF9E435F0FD75F07DB8
:100E2000EAA42DFAE435F0FD75F07DEBA42DFB7DF1
:100E300000EC28F582E93DF583EA3DF5F0EB3D2233
:100E4000A2AFC2AFA808A909AA0AAB0BAC0C92AF1B
:100E500075F020E8A4A8F075F020E9A428F582A890
:100E6000F075F020EAA428F583A8F075F020EBA433
:100E700028F9A8F075F020ECA42889F022858222B8
:100E800085832385F024F525120DD9858226858357
:100E90002785F028F529E5224523452445257001BD
:100EA00022A822A923AA24AB2585262A85272B85BB
:100EB000282C85292DE8494A4B60DBC003C002C0BD
:100EC00001C000120DD9AC82AD83AEF0FFD000D0CE
:100ED00001D002D003ECC3952AFCED952BFDEE95D5
:100EE0002CFEEF952DFFC3EC94E8ED9403EE9400F7
:100EF000EF940040A118B8FF0919B9FF051ABAFF0D
:100F0000011B882289238A248B2574E8252AF52A47
:100F10007403352BF52BE4352CF52CE4352DF52D0C
:100F2000852A26852B27852C28852D298087AE822A
:100F3000AF83C374019EE49F40022200C374029EEB
:100F4000FE74009FFF00BE0005BF000200220000EB
:100F50000000000000000000000000000000000E83
:100F6000BE00EB0FBF00ED002275A15575A1AA745C
:100F7000F855B94406F5B975A100901388120F2EE3
:100F8000759E5D759D0074F055894402F58953C9BD
:0D0F9000EF758C06C28DD2A9D28CD2AF2293
:100F9E0020F71130F6138883A88220F509F6A8836E
:100FAE007583002280FEF280F5F022C01585811532
:100FBE00C082C083E5812405F581AF150FE51524A8
:100FCE0003F8A607087600087640E51524FCFD7E9A
:100FDE00007F40E5152406F9A815088604E51524BA
:100FEE00FCF886038CF0EBA4F709A7F0E5152406B0
:100FFE0004F98704A81508860374012DFAE43EFE51
:10100E008A828E838FF01211378BF0A4FBE51524A4
:10101E0003F8740126FDE40836FE0886078D828EDD
:10102E00838FF0121137FDE51524FCF886078DF03D
:10103E00EFA42B2CF7E5152406F987060987078EF2
:0A104E00828F83851581D0152232B0
:10105900E58290164D93FFBFFF0475820022759AB1
:101069000974FC5580FE74035F4EF580D284208498
:10107900FD859F8222AF8290011C7401F08F82C08E
:1010890007120C44D00790011FE0FDA3E0FE4D704C
:101099000A90011DE4F08F82020D4B8D038E0474BA
:1010A900FF2C500B90011D7401F08F82020D4BEF44
:1010B9009015D593FA24FB4054EA2A9010C87380FE
:1010C9004C800680158024803353C6FB439D04431E
:1010D9009D10E59D30E4FB8D9C2253C6F7439D0886
:1010E900439D10E59D30E4FB8D9B2243C604439D3F
:1010F90004439D10E59D30E4FB8D9C2243C60843C3
:101109009D08439D10E59D30E4FB8D9B22C3EB9424
:1011190080EC9400500A90011DE4F08F82020D4B7F
:0B11290090011D7401F08F82020D4B3D
:011135003287
:1011370020F71430F6148883A88220F507E6A883E1
:1011470075830022E280F7E49322E022C0158581AF
:1011570015C082C083C0F0C0E0E5812408F581E5B1
:10116700152409F92402F8AF150F8F06C000A80649
:101177008606E51524FAFDFC0C0CA8048604D000AD
:101187008EF0ECA4FEABF0A60608A6038F068E0031
:1011970086068D048C0086048EF0ECA4FEABF0A7C7
:1011A7000609A703E51524092403F987068F0474A4
:1011B700032CF886048D038B0086038CF0EBA42E9A
:1011C700FEF78F0474022CF886048D03EB04F8866F
:1011D700038CF0EBA42EF7E51524092402F9870404
:1011E700098706198F0374022BF886038D028A007C
:1011F70086028BF0EAA4ABF02CFCEB3EFEA70409B9
:10120700A706198F03EB04F886038D02EA04F88614
:10121700028BF0EAA4ABF02CFCEB3EFEA70409A777
:10122700068F0674032EF98F06EE04F886068D04E2
:1012370074022CF886048EF0ECA4F78F06EE04F9FE
:101247008F06EE04F886068D048C0086048EF0EC7B
:10125700A4FEABF0A70609A7038D0674032EF98F2A
:10126700068E0086068D0474032CF886048EF0EC37
:10127700A4F78D06EE04F98F068E0086068D04EC22
:1012870004F886048EF0ECA4FEABF0A70609A703CA
:101297008D0177008F017700E5152409F9E51524FD
:1012A70005F8E7F609E708F609E708F609E708F693
:1012B700191919A8150886020886030886060886DC
:1012C70007E5152405F8EA26F6EB0836F6EE0836A4
:1012D700F6EF0836F6E5152405F8E6F70908E6F708
:1012E7000908E6F70908E6F7191919E709E709E709
:1012F70009E7E51524FAF88604088605088606082E
:101307008607E5152405F8EC26FCED0836FDEE0802
:1013170036FEEF08368C828D838EF0851581D015C9
:0113270022A3
:1013280090017AE0FF7E000FBF00010E7410C0E04C
:10133800E4C0E08F828E83121448AE821581158135
:1013480090017BE0FFEEB507012290017AE02421AD
:10135800F582E43401F583E599F090017AEEF02204
:1013680030034A90017CE0FF90017DE0FEEFB50676
:1013780005A203C2032290017DE02431F582E43402
:1013880001F583E0F59990017DE0FF7E000FBF0035
:10139800010E7410C0E0E4C0E08F828E83121448FE
:0E13A800AE82AF831581158190017DEEF0229B
:1013B60090017EE0FF7E000FBF00010E7410C0E0BA
:1013C600E4C0E08F828E83121448AE8215811581A7
:1013D60090017FE0FFEEB507012290017EE02441F7
:1013E600F582E43401F583E5C1F090017EEEF0224A
:1013F60030044A900180E0FF900181E0FEEFB506DF
:1014060005A204C20422900181E02451F582E4344D
:1014160001F583E0F5C1900181E0FF7E000FBF007A
:10142600010E7410C0E0E4C0E08F828E831214486F
:0E143600AE82AF8315811581900181EEF02208
:1014440075820022C015858115AE82E583FF33E4E1
:1014540033FD6009C3E49EFBE49FFC80048E038F8C
:1014640004E51524FCF808E630E70FE51524FCF83C
:10147400C3E496FE08E496FF800AE51524FCF8868A
:1014840006088607C005C006C0078B828C83121429
:10149400B6AE82AF8315811581D005ED600DC3E42E
:1014A4009EFCE49FFD8C828D8380048E828F83D08A
:1014B4001522C015858115AE82AF837D007C00E5C1
:1014C4001524FCF808E6235401FB702FE51524FCD1
:1014D400F8E626F608E633F6E51524FCF8C3EE969E
:1014E400EF08965011E51524FCF808E618C313C656
:1014F40013C608F680050C8C0580C4E51524FCF899
:10150400C3EE96EF0896400DE51524FCF8EEC3965D
:10151400FEEF0896FFE51524FCF808E618C313C689
:1015240013C608F68D041DEC70D18E828F83D015FE
:011534002294
:1015350012011001000000081C1B100C0001010223
:1015450003010600FF0901A101150026FF0075082A
:10155500954009019102951009018102C0090229EE
:1015650000010100803209040000020300000009A7
:101575002111010001221B0007058103100001074D
:1015850005020340000104030904100343006F0032
:10159500720073006100690072001C0343006F0054
:1015A5006D006D0061006E00640065007200200032
:1015B500500072006F001A034300500052004F00A4
:1015C5003000300030003800390037003500370072
:1015D5000000000000000000000000000000000105
:1015E50000000000000000000000000000000304EF
:1015F50000000200000000000101010101010101DC
:1016050000000202020202020202000003030303B9
:101615000303030300000404040404040404000099
:101625000102040810204080000001020408102077
:1016350040800000010204081020408000000102E3
:101645000408102040800000FFFFFFFFFFFFFFFFA1
:10165500FFFFFF00FFFF0102FFFFFFFFFFFFFFFF8F
:10166500FFFFFFFFFFFFFFFF03FFFFFFFFFFFFFF81
:101675000D0C0000000000000000003232020200E4
:0316850000000062
:04168800C409C409C4
:02168C0000005C
:04168E000000000058
:041692000000000054
:00000001FF
